{
  "abi": [
    {
      "inputs": [
        {
          "internalType": "contract IUniswapV2Router02",
          "name": "_router",
          "type": "address"
        }
      ],
      "stateMutability": "nonpayable",
      "type": "constructor"
    },
    {
      "inputs": [],
      "name": "router",
      "outputs": [
        {
          "internalType": "contract IUniswapV2Router02",
          "name": "",
          "type": "address"
        }
      ],
      "stateMutability": "view",
      "type": "function"
    },
    {
      "inputs": [
        {
          "internalType": "address[]",
          "name": "path",
          "type": "address[]"
        }
      ],
      "name": "swap",
      "outputs": [],
      "stateMutability": "nonpayable",
      "type": "function"
    }
  ],
  "bytecode": {
    "object": "0x60a060405234801561001057600080fd5b506040516106fe3803806106fe83398101604081905261002f91610040565b6001600160a01b0316608052610070565b60006020828403121561005257600080fd5b81516001600160a01b038116811461006957600080fd5b9392505050565b6080516106666100986000396000818160550152818161010501526101a501526106666000f3fe608060405234801561001057600080fd5b50600436106100365760003560e01c80639b40a0c01461003b578063f887ea4014610050575b600080fd5b61004e610049366004610331565b6100a0565b005b6100777f000000000000000000000000000000000000000000000000000000000000000081565b60405173ffffffffffffffffffffffffffffffffffffffff909116815260200160405180910390f35b818160008181106100b3576100b36103a6565b90506020020160208101906100c891906103fe565b6040517f095ea7b300000000000000000000000000000000000000000000000000000000815273ffffffffffffffffffffffffffffffffffffffff7f0000000000000000000000000000000000000000000000000000000000000000811660048301527fffffffffffffffffffffffffffffffffffffffffffffffffffffffffffffffff6024830152919091169063095ea7b3906044016020604051808303816000875af115801561017e573d6000803e3d6000fd5b505050506040513d601f19601f820116820180604052508101906101a29190610420565b507f000000000000000000000000000000000000000000000000000000000000000073ffffffffffffffffffffffffffffffffffffffff166338ed1739838360008181106101f2576101f26103a6565b905060200201602081019061020791906103fe565b6040517f70a0823100000000000000000000000000000000000000000000000000000000815230600482015273ffffffffffffffffffffffffffffffffffffffff91909116906370a0823190602401602060405180830381865afa158015610273573d6000803e3d6000fd5b505050506040513d601f19601f820116820180604052508101906102979190610442565b60018585306102a6428561045b565b6040518763ffffffff1660e01b81526004016102c79695949392919061049a565b6000604051808303816000875af11580156102e6573d6000803e3d6000fd5b505050506040513d6000823e601f3d9081017fffffffffffffffffffffffffffffffffffffffffffffffffffffffffffffffe016820160405261032c9190810190610554565b505050565b6000806020838503121561034457600080fd5b823567ffffffffffffffff8082111561035c57600080fd5b818501915085601f83011261037057600080fd5b81358181111561037f57600080fd5b8660208260051b850101111561039457600080fd5b60209290920196919550909350505050565b7f4e487b7100000000000000000000000000000000000000000000000000000000600052603260045260246000fd5b803573ffffffffffffffffffffffffffffffffffffffff811681146103f957600080fd5b919050565b60006020828403121561041057600080fd5b610419826103d5565b9392505050565b60006020828403121561043257600080fd5b8151801515811461041957600080fd5b60006020828403121561045457600080fd5b5051919050565b60008219821115610495577f4e487b7100000000000000000000000000000000000000000000000000000000600052601160045260246000fd5b500190565b868152602080820187905260a0604083018190528201859052600090869060c08401835b888110156104f75773ffffffffffffffffffffffffffffffffffffffff6104e4856103d5565b16825292820192908201906001016104be565b5073ffffffffffffffffffffffffffffffffffffffff96909616606085015250505060800152949350505050565b7f4e487b7100000000000000000000000000000000000000000000000000000000600052604160045260246000fd5b6000602080838503121561056757600080fd5b825167ffffffffffffffff8082111561057f57600080fd5b818501915085601f83011261059357600080fd5b8151818111156105a5576105a5610525565b8060051b6040517fffffffffffffffffffffffffffffffffffffffffffffffffffffffffffffffe0603f830116810181811085821117156105e8576105e8610525565b60405291825284820192508381018501918883111561060657600080fd5b938501935b828510156106245784518452938501939285019261060b565b9897505050505050505056fea2646970667358221220b9e554496dcd8487de004e31ecee211b4f6fb98c16f1ddab82adc6ed4baaf4a664736f6c634300080d0033",
    "linkReferences": {}
  }
}