{
  "abi": [
    {
      "inputs": [
        {
          "internalType": "uint256",
          "name": "a",
          "type": "uint256"
        },
        {
          "internalType": "uint256",
          "name": "b",
          "type": "uint256"
        }
      ],
      "name": "add",
      "outputs": [],
      "stateMutability": "nonpayable",
      "type": "function"
    },
    {
      "inputs": [],
      "name": "result",
      "outputs": [
        {
          "internalType": "uint256",
          "name": "",
          "type": "uint256"
        }
      ],
      "stateMutability": "view",
      "type": "function"
    }
  ],
  "bytecode": {
    "object": "0x608060405234801561001057600080fd5b50610106806100206000396000f3fe6080604052348015600f57600080fd5b506004361060325760003560e01c806365372147146037578063771602f7146051575b600080fd5b603f60005481565b60405190815260200160405180910390f35b6060605c3660046071565b6062565b005b606a81836092565b6000555050565b60008060408385031215608357600080fd5b50508035926020909101359150565b6000821982111560cb577f4e487b7100000000000000000000000000000000000000000000000000000000600052601160045260246000fd5b50019056fea26469706673582212203aa931dbe3d72b9d54d5c78f95b214824816366053ead9f52795b9533040cf3f64736f6c634300080d0033",
    "linkReferences": {}
  }
}